:100000000C945D000C9485000C9485000C94850084
:100010000C9485000C9485000C9485000C9485004C
:100020000C9485000C9485000C9485000C947E0C37
:100030000C9485000C9485000C9485000C9485002C
:100040000C94DC0B0C9485000C944C0C0C94260C3A
:100050000C9485000C9485000C9485000C9485000C
:100060000C9485000C94850000000008000201003B
:100070000003040700000000000000000000000072
:10008000250028002B0000000000240027002A0083
:10009000040404040404040402020202020203032E
:1000A0000303030301020408102040800102040836
:1000B00010200102040810203A0D11241FBECFEFBA
:1000C000D8E0DEBFCDBF11E0A0E0B1E0E6ECFAE29F
:1000D00002C005900D92A633B107D9F722E0A6E33E
:1000E000B1E001C01D92A03AB207E1F710E0CDE502
:1000F000D0E004C02197FE010E94EB11CC35D1075E
:10010000C9F70E94D70D0C9461150C940000FC01F6
:100110008AE091E09183808316821782108611868F
:10012000128613861486158688EC90E0978786875A
:10013000718B608B538B428B8FEF9FEF958B848BF2
:1001400081E090E0978B868B918F808F128E138E3B
:10015000148E158E178E168E88EE93E091A380A3D1
:1001600093A382A314A615A616A617A610A611A6D9
:1001700012A613A615AE14AE10AA11AA12AA13AA9B
:1001800014AA15AA16AA17AA10AE11AE12AE13AE73
:10019000128213821482158214A215A216A217A22B
:1001A00008958F929F92AF92BF92FF920F931F93E9
:1001B000CF93DF93F09002022BE02F1508F450C08C
:1001C0002091040208E512E0021B110927FD139596
:1001D000000F111F000F111F20910302C8E8D0E08B
:1001E000C21BD10927FDD395CC0FDD1FCC0FDD1F1E
:1001F0004E010D2E000CAA08BB08DC0197FF02C0BF
:10020000B0E0A0E09801012E000C440B550B28191A
:1002100039094A095B090E94501124EB30E040E0A3
:1002200050E00E942611820E931EA41EB51E8C164D
:100230009D062CF0E801801691060CF4E40122974B
:10024000CC0FDD1F2FB7F8948F2D90E0FC01EE0F3F
:10025000FF1FE80FF91FE352FE4FD283C1832FBF68
:10026000DF91CF911F910F91FF90BF90AF909F9022
:100270008F90089590E0FC01EC55FF4F249180573A
:100280009F4FFC018491882399F090E0880F991F7B
:10029000FC01EA57FF4FA591B491FC01E458FF4FD0
:1002A000859194918FB7F894EC91E22BEC938FBFEA
:1002B000089590E0FC01E859FF4F2491FC01EC55B2
:1002C000FF4F3491FC01E057FF4FE491EE23C9F05A
:1002D000222339F0233001F1A8F4213019F1223022
:1002E00029F1F0E0EE0FFF1FE458FF4FA591B49104
:1002F0008FB7F894EC91611126C030953E233C9362
:100300008FBF08952730A9F02830C9F0243049F76D
:10031000809180008F7D03C0809180008F778093D3
:100320008000DFCF84B58F7784BDDBCF84B58F7D30
:10033000FBCF8091B0008F778093B000D2CF8091B7
:10034000B0008F7DF9CF3E2BDACF3FB7F894809184
:10035000380190913901A0913A01B0913B0126B545
:10036000A89B05C02F3F19F00196A11DB11D3FBFED
:10037000BA2FA92F982F8827BC01CD01620F711DBC
:10038000811D911D42E0660F771F881F991F4A95B6
:10039000D1F708958F929F92AF92BF92CF92DF9242
:1003A000EF92FF924B015C010E94A5016B017C0161
:1003B0000E94A5016C197D098E099F09683E734052
:1003C00081059105A8F321E0821A9108A108B108DE
:1003D00088EEC80E83E0D81EE11CF11C8114910444
:1003E000A104B10429F7FF90EF90DF90CF90BF9068
:1003F000AF909F908F900895AF92BF92CF92DF926F
:10040000EF92FF920F931F93CF93DF936C017B01C9
:100410008B01040F151FEB015E01AE18BF08C0175A
:10042000D10759F06991D601ED91FC910190F081CD
:10043000E02DC6010995892B79F7C501DF91CF9190
:100440001F910F91FF90EF90DF90CF90BF90AF90F2
:100450000895FC01538D448D252F30E0842F90E0CA
:10046000821B930B541710F0CF96089501970895AF
:10047000FC01918D828D981761F0A28DAE0FBF2F78
:10048000B11D5D968C91928D9F5F9F73928F90E0CE
:1004900008958FEF9FEF08952FB7F89480913C0156
:1004A00090913D01A0913E01B0913F012FBF8093FB
:1004B000480190934901A0934A01B0934B0180E415
:1004C00091E00E94380297FF26C02FB7F8948091E0
:1004D0003C0190913D01A0913E01B0913F012FBFA1
:1004E000409148015091490160914A0170914B013E
:1004F000841B950BA60BB70B40914401509145010D
:10050000609146017091470184179507A607B707C8
:10051000B0F28FEF9FEF0895FC01918D828D9817B7
:1005200031F0828DE80FF11D858D90E008958FEFF9
:100530009FEF0895FC01918D228D892F90E0805CC2
:100540009F4F821B91098F739927089580E491E052
:100550000E949A0221E0892B09F420E0822F08955D
:1005600080E090E0892B29F00E94A60281110C9472
:1005700000000895FC01A48DA80FB92FB11DA35A46
:10058000BF4F2C91848D90E001968F739927848FB3
:10059000A689B7892C93A089B1898C9183708064D6
:1005A0008C93938D848D981306C00288F389E02D77
:1005B00080818F7D80830895EF92FF920F931F9328
:1005C000CF93DF93EC0181E0888F9B8D8C8D981306
:1005D0001AC0E889F989808185FF15C09FB7F89412
:1005E000EE89FF896083E889F9898081837080645E
:1005F00080839FBF81E090E0DF91CF911F910F91A9
:10060000FF90EF900895F62E0B8D10E00F5F1F4FB7
:100610000F731127E02E8C8D8E110CC00FB607FCC6
:10062000FACFE889F989808185FFF5CFCE010E9454
:10063000BA02F1CFEB8DEC0FFD2FF11DE35AFF4F06
:10064000F0829FB7F8940B8FEA89FB8980818062E2
:10065000CFCFCF93DF93EC01888D8823B9F0AA899F
:10066000BB89E889F9898C9185FD03C0808186FD6D
:100670000DC00FB607FCF7CF8C9185FFF2CF8081BC
:1006800085FFEDCFCE010E94BA02E9CFDF91CF9175
:1006900008958F929F92AF92BF92CF92DF92EF9286
:1006A000FF924B015C0169017A01C114D104E1049C
:1006B000F10421F40E94A5016B017C010E94A501B7
:1006C0006C197D098E099F09681579058A059B05B6
:1006D000A8F3FF90EF90DF90CF90BF90AF909F90E6
:1006E0008F9008952F923F924F925F926F927F92D8
:1006F0008F929F92AF92BF92CF92DF92EF92FF9232
:100700000F931F93CF93DF93CDB7DEB728970FB624
:10071000F894DEBF0FBECDBF8C01DC0153966D9106
:100720007D918D919C91569761157105810591057B
:1007300041F057962D913D914D915C915A970E94B1
:100740004903F801228033809101215031093A8315
:100750002983220C331C220C331C200E311E89816C
:100760009A8197FD5FC1F10183819481A581B68152
:10077000F8014389548965897689481759076A07BA
:100780007B0708F44AC10480F581E02D89819A81B4
:10079000880F991FE80FF91F2081318138872F8337
:1007A000F90180A591A5A2A5B3A5181619061A06E8
:1007B0001B060CF027C162857385848595856115BC
:1007C00071058105910531F026813781408551857C
:1007D0000E944903AF81B885DC966C91DC975096F6
:1007E0008C910E94590161E0EF81F88582890E9415
:1007F00059010E94A5016B837C838D839E83AF8109
:10080000B885D496CD90DD90ED90FC90D7979896D2
:100810008D919D910D90BC91A02D181619061A0668
:100820001B060CF092C09C01AD0121503109410919
:100830005109EF81F88520A731A742A753A744A00B
:1008400055A066A077A0FFEF4F1A5F0A6F0A7F0AD4
:10085000AF81B88594964D925D926D927C929797F8
:100860005E968D919C915F97019709F06EC021155E
:1008700031054105510509F468C0FD0180A991A920
:10088000A2A9B3A982179307A407B507DCF484A52E
:1008900095A5A6A5B7A584159505A605B7050CF4DD
:1008A00054C0481659066A067B060CF493C0EF81C3
:1008B000F88580AD91ADA2ADB3AD84AB95ABA6ABE1
:1008C000B7AB43C0AF81B88512968D909D90AD9027
:1008D000BC901597ACEFBFEF0E9453112B013C0168
:1008E000BFEF4B1A5B0A6B0A7B0AC701B601660FA2
:1008F000771F881F991F680D791D8A1D9B1DA301F5
:1009000092010E942611D701C601821B930BA40BF2
:10091000B50BEF81F88584AB95ABA6ABB7ABBC014B
:10092000CD01660F771F881F991F680D791D8A1DDD
:100930009B1DA30192010E942611AF81B8851296DA
:100940006D937D938D939C93159720E030E0A901E2
:1009500061E070E080E090E00E94490360E0AF81D8
:10096000B88552968C910E9459010E94A501EF8191
:10097000F88566837783808791872B813C81621B12
:10098000730BCB01B0E0A0E08C159D05AE05BF0553
:10099000A0F5C81AD90AEA0AFB0AAF81B8851A96E7
:1009A000CD92DD92ED92FC921D97EF81F8858285C4
:1009B0009385A485B585F10183839483A583B6834C
:1009C00029813A81215031093A83298334E0231A5D
:1009D0003108C5CEEF81F88582809380A480B580F0
:1009E00042E0440C551C661C771C4A95D1F7FFEF7A
:1009F0004F1A5F0A6F0A7F0A78CFC12CD12C76017B
:100A0000C394CBCFEF81F8851682178210861186AA
:100A10001286138614861586C8CF841B950BA60BE9
:100A2000B70BC9CF0E94A501D80157966D937D934E
:100A30008D939C935A97F801138A148A158A168A03
:100A40000280F381E02D9F0121503109EE0FFF1F3D
:100A5000EE0FFF1FE00FF11FD80153966D917D91AE
:100A60008D919C91569737FD1DC0C380D480E58041
:100A7000F680C114D104E104F10481F0C616D70652
:100A8000E806F90620F0672B682B692B39F4D801AA
:100A90005396CD92DD92ED92FC92569721503109FA
:100AA0003497DACF21E0611571058105910509F0D0
:100AB00020E0F801268328960FB6F894DEBF0FBE1B
:100AC000CDBFDF91CF911F910F91FF90EF90DF90FD
:100AD000CF90BF90AF909F908F907F906F905F90DE
:100AE0004F903F902F90089580E890E00895FC018A
:100AF000248935892F3F320751F061E0FC01868956
:100B00009789019709F460E0822F0C9459010895A8
:100B1000CF92DF92EF92FF92FC01248935892F3F1B
:100B2000320729F0FC016689822F0E9459010E9438
:100B3000A5016B017C010E94A5016C197D098E093C
:100B40009F096230710581059105A8F3FF90EF9030
:100B5000DF90CF900895EF92FF920F931F93CF9362
:100B6000DF938C017B01C1E0D0E0D801ED91FC91D5
:100B70000190F081E02DC80109958C179D0734F094
:100B8000CE15DF0571F4F801D18FC08FD8015896CA
:100B90008D919C91DF91CF911F910F91FF90EF90DC
:100BA0000895CC0FDD1FE1CFCF93DF93EC0188894F
:100BB0000E943A0161E088890E9459018A890E9455
:100BC0003A0160E08A890E9459018C899D898F3F92
:100BD000980729F00E943A01CE010E94770580E033
:100BE00090E0A8E4B3E48A8F9B8FAC8FBD8F61E067
:100BF00070E0CE010E94AB05CE01DF91CF910C9445
:100C00008805FC0124813581232B39F421E0FB0187
:100C10008081882349F020E007C0808191810E9473
:100C2000511521E0892BB9F7822F08950F931F9357
:100C3000CF93DF93EC0188819981009759F02A8145
:100C40003B812617370730F081E0DF91CF911F916C
:100C50000F9108958B016F5F7F4F0E948B14009757
:100C600059F0998388831B830A832C813D81232B30
:100C700059F7FC011082E8CF80E0E7CF2F923F9236
:100C80004F925F926F927F928F929F92AF92BF929C
:100C9000CF92DF92EF92FF920F931F93CF93DF9348
:100CA000CDB7DEB7A4970FB6F894DEBF0FBECDBFA9
:100CB0009CA38BA368017901DB01CA018095909503
:100CC000A095B0958827B7FD83959927AA27BB27BC
:100CD000EBA1FCA195AF84AF168217821086118616
:100CE0002A013B0177FE08C07094609450944094B0
:100CF000411C511C611C711CEBA1FCA140A651A61A
:100D000062A673A614A215A216A217A212821382BB
:100D100014821582828C938CA48CB58C6685778521
:100D2000072E000C880B990B0E94091069837A83A7
:100D30008B839C83ABA1BCA158968D919C919C0107
:100D4000990F440B550B29873A874B875C87CA015B
:100D5000B9010E9409106D837E838F839887ABA1B0
:100D6000BCA15E968D919C91019709F085C1298166
:100D70003A814B815C81C501B4010E94681020E07A
:100D800030E040E752E40E945E126D8B7E8B8F8BC9
:100D9000988F1B018C01EBA1FCA100A0F1A1E02D1B
:100DA000FA83E9839F01032E000C440B550B2F8F10
:100DB00038A349A35AA3CA01B9010E940910698F37
:100DC0007A8F8B8F9C8FABA1BCA192960D90BC911A
:100DD000A02DBE8FAD8F9D01032E000C440B550B33
:100DE000298B3A8B4B8B5C8B1C141D041E041F0437
:100DF0000CF087C0C701B6010E94091020E034E260
:100E000044E759E40E945E126B017C0169897A898A
:100E10008B899C890E9409109B01AC0160E070E005
:100E200080E89FE30E945E124B015C01298D3A8DA0
:100E30004B8D5C8D60E070E080E89FE30E945E1265
:100E40009B01AC01C501B4010E94F2116D877E8740
:100E50008F87988BA7019601C701B6010E94681081
:100E60004B015C01C301B20129853A854B855C8544
:100E70000E942611CA01B9010E94091069877A8768
:100E80008B879C872D853E854F855889CA01B9017E
:100E90000E94F2119B01AC0169857A858B859C8546
:100EA0000E9468109B01AC01C501B4010E94F111C0
:100EB0004B015C0120E030E0A9010E94061387FD90
:100EC00020C0C501B4010E9411139B01AC01C701F0
:100ED000B6010E94F1112D853E854F8558890E94EB
:100EE0005E121B018C019B01AC016D897E898F898B
:100EF000988D0E940613181624F02D883E880F89BD
:100F0000188D9101A801B101C8010E9468106B0100
:100F10007C0169817A81660F771F072E000C880B90
:100F2000990B0E9409109B01AC01C701B6010E94F8
:100F30005E122D813E814F8158850E9468100E946B
:100F4000D0126B017C01ABA1BCA19C96CD92DD922D
:100F5000ED92FC929F972F8D38A149A15AA10E9432
:100F6000C01129893A894B895C890E942611EBA11D
:100F7000FCA120AB31AB42AB53ABC20ED31EE41E7F
:100F8000F51E4C145D046E047F042CF5A301920140
:100F900069897A898B899C890E94C01129813A814B
:100FA0004D8D5E8D240F351F032E000C440B550B09
:100FB0000E942611ABA1BCA19C962D933D934D930D
:100FC0005C939F97421A530A640A750AFD0140AA6E
:100FD00051AA62AA73AA298D3A8D4B8D5C8D60E06F
:100FE00070E080E090E40E945E122D813E814F818E
:100FF00058850E945E120E94111320E03AE045E2FB
:1010000059E40E9468100E94D012ABA1BCA1D496F2
:101010006D937D938D939C93D7979101A80160E088
:1010200074E284E799E40E945E122D813E814F8133
:1010300058850E945E120E94D012EBA1FCA160AF05
:1010400071AF82AF93AFA4960FB6F894DEBF0FBE18
:10105000CDBFDF91CF911F910F91FF90EF90DF9067
:10106000CF90BF90AF909F908F907F906F905F9048
:101070004F903F902F900895ABA1BCA19C961D92DC
:101080001D921D921C929F97FD0110AA11AA12AAEF
:1010900013AA29813A814B815C8160EC71EE84E670
:1010A0009CE40E945E122D813E814F8158850E94F2
:1010B0005E12A50194010E945E120E94D0124B01A3
:1010C0005C01ABA1BCA1D8968D929D92AD92BC92D1
:1010D000DB97A30192010E94C0116C157D058E055E
:1010E0009F053CF0EBA1FCA184AA95AAA6AAB7AAE9
:1010F000AACFC701B6010E9409106B017C01C30190
:10110000B2010E9409109B01AC01C701B6010E9407
:101110005E120E94D012ABA1BCA1D4966D937D93B8
:101120008D939C93D7978FCF2F923F924F925F9240
:101130006F927F928F929F92AF92BF92CF92DF92E7
:10114000EF92FF920F931F93CF93DF93CDB7DEB74C
:10115000A2970FB6F894DEBF0FBECDBF9E878D87D6
:1011600049835A836B837C830D831E832F83388747
:10117000C986DA86EB86FC86DC0112960D90BC915E
:10118000A02DBA8BA98B1197BC8FAB8FE989FA89F7
:10119000EE0FFF1FEE0FFF1FFAA3E9A3188A1F86A9
:1011A0001B8A1C8A1D8A1E8A8B8D9C8D2F853889EF
:1011B000820F931F97FD51C1F901EE0FFF1FEE0F34
:1011C000FF1F49A15AA1E40FF51F349781E090E079
:1011D0008C0F9D1FE80FF91F6081718182819381BF
:1011E000611571058105910509F4E9C029893A89DC
:1011F000AF85B8892A0F3B1F21503048220F331F7B
:10120000ED85FE8544815581240F351FD9012D9030
:101210003C906B017C01F7FE08C0F094E094D09400
:10122000C094C11CD11CE11CF11CF101868D978D6D
:10123000019709F0D8C000E010E09801B701A601BD
:10124000C1010E943E06D1019C964D905D906D902B
:101250007C909F97D0962D913D914D915C91D39725
:101260002F8B388F498F5A8F58966D917C91072E0E
:10127000000C880B990B0E9409106B017C01C301C3
:10128000B2010E9409109B01AC010E94F2114B01B6
:101290005C01F10160A171A1072E000C880B990B74
:1012A0000E9409109B01AC01C501B4010E945E12AD
:1012B000A70196010E945E120E9411136D8F7E8F0E
:1012C0008F8F98A36F89788D898D9A8D0E940910D0
:1012D0009B01AC010E94F2114B015C01D10192967D
:1012E0006D917C91072E000C880B990B0E940910C0
:1012F0009B01AC01C501B4010E945E12A7019601D9
:101300000E945E120E9411134B015C01F10160A565
:1013100071A582A593A564197509860997092F8976
:10132000388D498D5A8D621B730B840B950B0E946F
:1013300009102B013C01D1011E966D917C91072E65
:10134000000C880B990B0E940910F101228D338D3E
:10135000448D558D0E94681020E030E040E752E453
:101360000E945E12A70196010E9468109B01AC01C9
:10137000C301B2010E945E122D8D3E8D4F8D58A18A
:101380000E94F211A50194010E94F21120E034E2C2
:1013900044E759E40E9468106B017C0120E030E0D2
:1013A000A9010E94061320E030E040E05FE387FDE2
:1013B0004FC0C701B6010E94F2110E94D0122B89C2
:1013C0003C894D895E89261737074807590724F459
:1013D0006B8B7C8B8D8B9E8B4F855889415051092F
:1013E000588B4F87E1CE66857785072E000C880BDA
:1013F000990B0E9409109B01AC0160EC71EE84E630
:101400009CE40E945E124B015C01F101608D718DC4
:10141000072E000C880B990B0E9409109B01AC0150
:10142000C501B4010E945E12D1015A962D913D91E1
:101430004D915C915D970E945E124B015C01C7016A
:10144000B6010E9409109B01AC01C501B401A2CFF5
:10145000C701B6010E94F111B0CFAD85BE851296CD
:10146000ED90FC906701B1E0CB1AD108EE0CFF1CA7
:10147000EE0CFF1C412C512C32014394D7FC3AC096
:101480005701E4E0AE1AB108E1E0F0E0EC0FFD1F17
:10149000EA0DFB1D40815181628173812D853E855E
:1014A000E20EF31E4115510561057105D9F0D90110
:1014B0001496ED91FC91C601880F991FE80FF91F52
:1014C0000B891C892D893E89808191810E943E066D
:1014D000F7014382548265827682B1E0CB1AD1084B
:1014E0007501CCCFD70113961D921D921D921C92AF
:1014F0001697F3CFED85FE851682178A108E118E12
:10150000128E81E090E0A0E0B0E0838B948BA58BFD
:10151000B68BA2960FB6F894DEBF0FBECDBFDF919B
:10152000CF911F910F91FF90EF90DF90CF90BF90E0
:10153000AF909F908F907F906F905F904F903F9073
:101540002F9008958F929F92AF92BF92CF92DF9289
:10155000EF92FF920F931F93CF93DF93EC019B01C8
:101560000091090210910A02D8011296ED91FC91A6
:10157000309709F440C0672BF1F1A685B7850E942A
:10158000DC119B01AC01A08DB18D0E94501128E6A9
:1015900031E040E050E00E94261149015A01D80193
:1015A000ED91FC91309759F1209749F1A685B785C7
:1015B0009E010E94DC119B01AC01A08DB18D0E94A7
:1015C000501128E631E040E050E00E942611BA01B7
:1015D000A901C12CD12C76019501840185E092E00E
:1015E0000E94940880910B0281110DC085E092E069
:1015F0000E947203F7CF812C912C5401D0CF40E090
:1016000050E0BA01E6CFDF91CF911F910F91FF908B
:10161000EF90DF90CF90BF90AF909F908F90089504
:101620000F931F93CF93DF938C01D0E0C0E068E964
:101630007EEF88E99EEF0E94A20A6AE070E080E0F7
:1016400090E00E94CA0121960C171D0781F7DF91D7
:10165000CF911F910F9108950F931F93CF93DF9315
:101660008C01D0E0C0E068E671E088E691E00E947D
:10167000A20A6AE070E080E090E00E94CA01219630
:101680000C171D0781F7DF91CF911F910F910895DE
:101690004F925F926F927F928F929F92AF92BF9282
:1016A000CF92DF92EF92FF920F931F93CF93DF932E
:1016B000CDB7DEB72C970FB6F894DEBF0FBECDBF07
:1016C0005C0149835A836B837C830D831E832F8344
:1016D0003887C986DA86EB86FC86DC0112968D9106
:1016E0009C916C01B1E0CB1AD108880F991F880F2B
:1016F000991F412C512C32014394D7FC38C04C0126
:10170000E4E08E1A9108E1E0F0E0EC0FFD1FE80D37
:10171000F91D40815181628173817501E80EF91EC6
:101720004115510561057105D1F0D5011496ED9172
:10173000FC91C601880F991FE80FF91F00E010E027
:101740009801808191810E943E06F7014382548274
:1017500065827682B1E0CB1AD108C401CECFD70121
:1017600013961D921D921D921C921697F3CFF501B0
:101770001682178A108E118E128E81E090E0A0E002
:10178000B0E0838B948BA58BB68B2C960FB6F89418
:10179000DEBF0FBECDBFDF91CF911F910F91FF90A4
:1017A000EF90DF90CF90BF90AF909F908F907F9001
:1017B0006F905F904F9008951F920F920FB60F9207
:1017C00011242F933F938F939F93AF93BF93809157
:1017D0003C0190913D01A0913E01B0913F013091BB
:1017E000370123E0230F2D3758F50196A11DB11DB8
:1017F0002093370180933C0190933D01A0933E01DB
:10180000B0933F018091380190913901A0913A0144
:10181000B0913B010196A11DB11D809338019093B9
:101820003901A0933A01B0933B01BF91AF919F91D1
:101830008F913F912F910F900FBE0F901F90189591
:1018400026E8230F0296A11DB11DD2CF1F920F9241
:101850000FB60F9211242F933F934F935F936F9383
:101860007F938F939F93AF93BF93EF93FF9380E406
:1018700091E00E94BA02FF91EF91BF91AF919F91C9
:101880008F917F916F915F914F913F912F910F9029
:101890000FBE0F901F9018951F920F920FB60F92C8
:1018A00011242F938F939F93EF93FF93E091500117
:1018B000F09151018081E0915601F091570182FD34
:1018C0001BC09081809159018F5F8F7320915A01C5
:1018D000821741F0E0915901F0E0E05CFE4F958FF6
:1018E00080935901FF91EF919F918F912F910F90CC
:1018F0000FBE0F901F9018958081F4CF1F920F920A
:101900000FB60F9211242F933F934F935F936F93D2
:101910007F938F939F93AF93BF93CF93DF93EF9377
:10192000FF9380913601C0910102D0E087FF24C06F
:101930001092850010928400809136018F5F809311
:10194000360180913601082E000C990B8C179D07EB
:1019500024F4809136018C30C4F180918400909100
:101960008500049680349C4908F47AC080918400F4
:1019700090918500049676C080913601082E000C67
:10198000990B8C179D07C4F6E09136018E2FEE0F50
:10199000990BFC01EE0FFF1FE80FF91FE352FE4FFA
:1019A000808186FFC9CFE09136018E2FEE0F990B13
:1019B000FC01EE0FFF1FE80FF91FE352FE4F80817D
:1019C00060E08F730E945901B7CF2091840030915D
:1019D0008500E09136018E2FEE0F990BFC01EE0F82
:1019E000FF1FE80FF91FE352FE4F81819281820FA2
:1019F000931F9093890080938800E09136018E2F89
:101A0000EE0F990BFC01EE0FFF1FE80FF91FE352D9
:101A1000FE4F808186FF11C0E09136018E2FEE0FC0
:101A2000990BFC01EE0FFF1FE80FF91FE352FE4F69
:101A3000808161E08F730E945901FF91EF91DF91E6
:101A4000CF91BF91AF919F918F917F916F915F9156
:101A50004F913F912F910F900FBE0F901F901895AF
:101A600080E49CE990938900809388008FEF8093B5
:101A70003601E3CF109243011092420188EE93E0C9
:101A8000A0E0B0E08093440190934501A09346010B
:101A9000B093470186E191E090934101809340012A
:101AA00085EC90E090934D0180934C0184EC90E0A4
:101AB00090934F0180934E0180EC90E09093510100
:101AC0008093500181EC90E09093530180935201F8
:101AD00082EC90E0909355018093540186EC90E065
:101AE00090935701809356011092590110925A0118
:101AF00010925B0110925C0143E050E062E070E004
:101B00008EE592E00E94870045E050E064E070E0DE
:101B100080E292E00E94870084E090E00E946613D9
:101B20002EE532E0FC013183208320E232E0338372
:101B3000228322E030E03093080220930702909342
:101B40000A028093090281E080930B02109218022E
:101B50001092190210921A0210921B0210921C028B
:101B600010921D0210921E0210921F0288E291E054
:101B70009093060280930502809101028C3098F4C4
:101B800091E0980F909301028093020290E0FC0193
:101B9000EE0FFF1FE80FF91FE352FE4F88EB9BE0AB
:101BA0009283818308958FEF809302020895CF93EB
:101BB000DF93CDB7DEB728970FB6F894DEBF0FBE20
:101BC000CDBF789484B5826084BD84B5816084BDC6
:101BD00085B5826085BD85B5816085BD80916E00CB
:101BE000816080936E0010928100809181008260FC
:101BF0008093810080918100816080938100809139
:101C000080008160809380008091B1008460809327
:101C1000B1008091B00081608093B00080917A0023
:101C2000846080937A0080917A00826080937A0049
:101C300080917A00816080937A0080917A00806838
:101C400080937A001092C100E0915001F09151010F
:101C500082E08083E0914C01F0914D011082E0918F
:101C60004E01F0914F0180E1808310925801E09184
:101C70005401F091550186E08083E0915201F0918A
:101C80005301808180618083E0915201F091530182
:101C9000808188608083E0915201F09153018081BE
:101CA00080688083E0915201F091530180818F7DA3
:101CB0008083809102028C3008F050C08BE00E943B
:101CC0003A0180910202282F30E0F901EE0FFF1F48
:101CD000E20FF31FE352FE4F9081907C9B60908354
:101CE00010920302109204022CE0622F0E94D01185
:101CF000829FB001112430E020E0AB01420F531F5E
:101D0000FA01EE0FFF1FE40FF51FE352FE4F908123
:101D100096FD16C02F5F3F4F2C30310571F78111B2
:101D20000FC01092800082E08093810010928500A5
:101D300010928400B19A80916F00826080936F004E
:101D4000E09102028E2F90E0FC01EE0FFF1FE80FE2
:101D5000F91FE352FE4F8081806480838EE592E01C
:101D60000E94D40580E292E00E94D4058CEE9FEFA1
:101D70000E94D10080E0E82E80E0F82E1A821982BD
:101D80001C821B821E821D8270E060E0CE010196E3
:101D90000E94160629813A8181112BC02115310537
:101DA00019F0C9010E9402141A8219821E821D8232
:101DB0001C821B820E944C0297FD23C08F831886D1
:101DC0000D811E810F5F1F4FB801CE0101960E9449
:101DD0001606882379F329813A818D819E81BE017F
:101DE000695F7F4F820F931F0E945A151E830D83D8
:101DF000E1CF1E821D826DE271E0C9010E945A1579
:101E0000D9CF6CE271E0CE0101960E9401068823D1
:101E100071F184E090E00E942C0B6CE271E08CE2A6
:101E200091E00E94A20A64EF71E080E090E00E94DD
:101E3000CA018AE590E00E94D10064EF71E080E081
:101E400090E00E94CA0190E080E00E94D10064EF1F
:101E500071E080E090E00E94CA0184E090E00E947E
:101E6000100B64ED7EEF84ED9EEF0E94A20A6EE2FD
:101E700071E0CE0101960E940106882371F182E093
:101E800090E00E942C0B68EC70E088EC90E00E94DF
:101E9000A20A64EF71E080E090E00E94CA018AE546
:101EA00090E00E94D10064EF71E080E090E00E9439
:101EB000CA0190E080E00E94D10064EF71E080E010
:101EC00090E00E94CA0182E090E00E94100B68E35B
:101ED0007FEF88E39FEF0E94A20A60E371E0CE01EA
:101EE00001960E9401068823A1F08AE590E00E94F5
:101EF000D10064EF71E080E090E00E94CA0190E0C0
:101F000080E00E94D10064EF71E080E090E00E94E8
:101F1000CA0162E371E0CE0101960E9401068823A6
:101F200071F182E090E00E94100B68E37FEF88E39C
:101F30009FEF0E94A20A64EF71E080E090E00E94AF
:101F4000CA018AE590E00E94D10064EF71E080E070
:101F500090E00E94CA0190E080E00E94D10064EF0E
:101F600071E080E090E00E94CA0182E090E00E946F
:101F70002C0B68EC70E088EC90E00E94A20A64E30D
:101F800071E0CE0101960E940106882371F184E080
:101F900090E00E94100B64ED7EEF84ED9EEF0E94B6
:101FA000A20A64EF71E080E090E00E94CA018AE535
:101FB00090E00E94D10064EF71E080E090E00E9428
:101FC000CA0190E080E00E94D10064EF71E080E0FF
:101FD00090E00E94CA0184E090E00E942C0B6CE229
:101FE00071E08CE291E00E94A20A89819A810097B7
:101FF00011F00E940214E114F10409F4BFCE0E9412
:10200000A602882309F4BACE0E940000B7CEE89455
:1020100009C097FB3EF490958095709561957F4F30
:102020008F4F9F4F9923A9F0F92F96E9BB279395DE
:10203000F695879577956795B795F111F8CFFAF4EE
:10204000BB0F11F460FF1BC06F5F7F4F8F4F9F4F1F
:1020500016C0882311F096E911C0772321F09EE87D
:10206000872F762F05C0662371F096E8862F70E0E3
:1020700060E02AF09A95660F771F881FDAF7880FBD
:102080009695879597F90895990F0008550FAA0B13
:10209000E0E8FEEF16161706E807F907C0F012167B
:1020A0001306E407F50798F0621B730B840B950B7E
:1020B00039F40A2661F0232B242B252B21F40895D3
:1020C0000A2609F4A140A6958FEF811D811D089570
:1020D0000E947B100C94EC100E94DE1038F00E94DD
:1020E000E51020F0952311F00C94D5100C94DB1022
:1020F00011240C9420110E94FD1070F3959FC1F3E0
:10210000950F50E0551F629FF001729FBB27F00DA5
:10211000B11D639FAA27F00DB11DAA1F649F6627FA
:10212000B00DA11D661F829F2227B00DA11D621F49
:10213000739FB00DA11D621F839FA00D611D221F03
:10214000749F3327A00D611D231F849F600D211DE7
:10215000822F762F6A2F11249F5750409AF0F1F06A
:1021600088234AF0EE0FFF1FBB1F661F771F881FD3
:1021700091505040A9F79E3F510580F00C94D51026
:102180000C9420115F3FE4F3983ED4F38695779545
:102190006795B795F795E7959F5FC1F7FE2B880F79
:1021A000911D9695879597F9089597F99F6780E80F
:1021B00070E060E008959FEF80EC089500240A9499
:1021C0001616170618060906089500240A94121612
:1021D0001306140605060895092E0394000C11F445
:1021E000882352F0BB0F40F4BF2B11F460FF04C0F2
:1021F0006F5F7F4F8F4F9F4F089557FD9058440F4B
:10220000551F59F05F3F71F04795880F97FB991F55
:1022100061F09F3F79F08795089512161306140612
:10222000551FF2CF4695F1DF08C01616170618069F
:10223000991FF1CF86957105610508940895E8947A
:10224000BB2766277727CB0197F90895052E97FBC3
:102250001EF400940E943D1157FD07D00E948F117B
:1022600007FC03D04EF40C943D11509540953095E9
:1022700021953F4F4F4F5F4F0895909580957095F2
:1022800061957F4F8F4F9F4F08950E94B111A59F79
:10229000900DB49F900DA49F800D911D1124089561
:1022A000B7FF0C9445110E944511821B930B0895B2
:1022B0002F923F924F925F926F927F928F929F9256
:1022C000AF92BF92CF92DF92EF92FF920F931F9344
:1022D000CF93DF93CDB7DEB7CA1BDB0B0FB6F894F5
:1022E000DEBF0FBECDBF09942A88398848885F8435
:1022F0006E847D848C849B84AA84B984C884DF80A6
:10230000EE80FD800C811B81AA81B981CE0FD11D89
:102310000FB6F894DEBF0FBECDBFED010895A1E268
:102320001A2EAA1BBB1BFD010DC0AA1FBB1FEE1F4F
:10233000FF1FA217B307E407F50720F0A21BB30B9A
:10234000E40BF50B661F771F881F991F1A9469F716
:1023500060957095809590959B01AC01BD01CF0172
:102360000895A29FB001B39FC001A39F700D811D6E
:102370001124911DB29F700D811D1124911D08958E
:10238000DB018F939F930E944511BF91AF91A29F54
:10239000800D911DA39F900DB29F900D1124089563
:1023A000991B79E004C0991F961708F0961B881FA7
:1023B0007A95C9F7809508950E94B111332312F4DC
:1023C0008A1B9B0B0C94E6110E94B111B7FF089574
:1023D000821B930B0895EE0FFF1F0590F491E02DE3
:1023E00009945058BB27AA270E9409120C94EC109C
:1023F0000E94DE1038F00E94E51020F039F49F3F73
:1024000019F426F40C94DB100EF4E095E7FB0C9421
:10241000D510E92F0E94FD1058F3BA176207730711
:102420008407950720F079F4A6F50C941F110EF49B
:10243000E0950B2EBA2FA02D0B01B90190010C01D4
:10244000CA01A0011124FF27591B99F0593F50F4EC
:10245000503E68F11A16F040A22F232F342F442744
:10246000585FF3CF469537952795A795F04053953C
:10247000C9F77EF41F16BA0B620B730B840BBAF00C
:102480009150A1F0FF0FBB1F661F771F881FC2F777
:102490000EC0BA0F621F731F841F48F4879577958B
:1024A0006795B795F7959E3F08F0B0CF9395880F45
:1024B00008F09927EE0F9795879508950E9472125C
:1024C0000C94EC100E94E51058F00E94DE1040F0D1
:1024D00029F45F3F29F00C94D51051110C94201170
:1024E0000C94DB100E94FD1068F39923B1F355237F
:1024F00091F3951B550BBB27AA2762177307840717
:1025000038F09F5F5F4F220F331F441FAA1FA9F3AC
:1025100035D00E2E3AF0E0E832D091505040E6959A
:10252000001CCAF72BD0FE2F29D0660F771F881FFB
:10253000BB1F261737074807AB07B0E809F0BB0BEE
:10254000802DBF01FF2793585F4F3AF09E3F510502
:1025500078F00C94D5100C9420115F3FE4F3983E72
:10256000D4F3869577956795B795F7959F5FC9F7EB
:10257000880F911D9695879597F90895E1E0660F6C
:10258000771F881FBB1F621773078407BA0720F0E5
:10259000621B730B840BBA0BEE1F88F7E09508954E
:1025A0000E94D7126894B1110C94201108950E94D2
:1025B000051188F09F5798F0B92F9927B751B0F0BF
:1025C000E1F0660F771F881F991F1AF0BA95C9F7B7
:1025D00014C0B13091F00E941F11B1E008950C9425
:1025E0001F11672F782F8827B85F39F0B93FCCF3D8
:1025F000869577956795B395D9F73EF49095809534
:10260000709561957F4F8F4F9F4F08950E944410A2
:1026100008F48FEF089519F416F40C94DB100C9461
:1026200051130E940511B8F39923C9F3B6F39F57CC
:10263000550B87FF0E945F130024A0E640EA90013B
:1026400080585695979528F4805C660F771F881FF1
:1026500020F026173707480730F4621B730B840BF2
:10266000202931294A2BA695179407942025312536
:102670004A2758F7660F771F881F20F0261737075D
:10268000480730F4620B730B840B200D311D411D84
:10269000A09581F7B901842F9158880F9695879559
:1026A00008959F3F31F0915020F487957795679575
:1026B000B795880F911D9695879597F90895915034
:1026C0005040660F771F881FD2F708950F931F930E
:1026D000CF93DF938230910510F482E090E0E09197
:1026E0009E02F0919F0230E020E0B0E0A0E0309741
:1026F00099F42115310509F44AC0281B390B2430FF
:102700003105D8F58A819B816115710589F1FB013D
:1027100093838283FE0111C0408151810281138124
:1027200048175907E0F04817590799F4109761F0D6
:1027300012960C93129713961C933296CF01DF9149
:10274000CF911F910F91089500939E0210939F02C5
:10275000F4CF2115310551F04217530738F0A90184
:10276000DB019A01BD01DF01F801C1CFEF01F9CF13
:1027700090939F0280939E02CDCFFE01E20FF31F44
:10278000819391932250310939832883D7CF2091A7
:102790009C0230919D02232B41F420910201309143
:1027A000030130939D0220939C02209100013091FF
:1027B00001012115310541F42DB73EB740910401C7
:1027C00050910501241B350BE0919C02F0919D0274
:1027D000E217F307A0F42E1B3F0B2817390778F0F8
:1027E000AC014E5F5F4F2417350748F04E0F5F1F57
:1027F00050939D0240939C02819391939FCFF0E070
:10280000E0E09CCFCF93DF930097E9F0FC01329793
:1028100013821282A0919E02B0919F02ED0130E0DE
:1028200020E01097A1F420813181820F931F209125
:102830009C0230919D022817390709F061C0F0937E
:102840009D02E0939C02DF91CF910895EA01CE179B
:10285000DF07E8F54A815B819E0141155105B1F71B
:10286000E901FB83EA8349915991C40FD51FEC1705
:10287000FD0761F4808191810296840F951FE90123
:1028800099838883828193819B838A83F0E0E0E04F
:1028900012968D919C9113970097B9F52D913C91CB
:1028A0001197CD010296820F931F20919C023091C7
:1028B0009D022817390739F6309751F510929F027B
:1028C00010929E02B0939D02A0939C02BCCFD38332
:1028D000C28340815181840F951FC817D90761F4C5
:1028E0004E5F5F4F88819981480F591F5183408304
:1028F0008A819B81938382832115310509F0B0CFB2
:10290000F0939F02E0939E029ECFFD01DC01C0CFB9
:1029100013821282D7CFB0E0A0E0E1E9F4E10C9499
:102920005A118C01009751F4CB010E9466138C015F
:10293000C801CDB7DEB7E0E10C947611FC01E60FDB
:10294000F71F9C0122503109E217F30708F49DC0DC
:10295000D901CD91DC911197C617D70798F0C530F2
:10296000D10530F3CE0104978617970708F3C61BED
:10297000D70B2297C193D1936D937C93CF010E9483
:102980000214D6CF5B01AC1ABD0A4C018C0E9D1E01
:10299000A0919E02B0919F02512C412CF12CE12C70
:1029A000109731F580919C0290919D0288159905B0
:1029B00009F05CC04616570608F058C08091000127
:1029C00090910101009741F48DB79EB740910401A9
:1029D00050910501841B950BE817F90708F055C0C5
:1029E000F0939D02E0939C02F90171836083A0CF74
:1029F0008D919C91119712966C90129713967C90E2
:102A00001397A815B90559F56C0142E0C40ED11C05
:102A1000CA14DB0420F1AC014A195B09DA011296F1
:102A2000159780F06282738251834083D9016D9340
:102A30007C93E114F10471F0D7011396FC93EE93AB
:102A4000129776CF22968C0F9D1FF9019183808378
:102A5000F301EFCFF0939F02E0939E0269CF4816F7
:102A6000590608F42C017D01D3019ACFCB010E94B5
:102A700066137C01009749F0AE01B8010E94481529
:102A8000C8010E940214870153CF10E000E050CF2C
:102A9000FB01DC0102C001900D9241505040D8F77B
:102AA0000895FB01DC018D91019080190110D9F38B
:102AB000990B0895FB01DC0101900D920020E1F7D4
:062AC0000895F894FFCF19
:102AC6000000A0028000000000007405AB05880528
:102AD600770500000000DC02FC01290229039A02A6
:102AE60038028C02000000009408720331003200A4
:062AF6003300340035003E
:00000001FF
